:100000007AC000008AC0000088C0000086C00000DE
:1000100084C0000082C0000080C000007EC00000DC
:100020007CC000007AC0000078C0000076C00000EC
:1000300074C0000072C0000070C000006EC00000FC
:100040006CC000006AC0000068C0000066C000000C
:1000500064C0000062C0000060C000005EC000001C
:100060005CC000005AC0000058C0000056C000002C
:1000700054C0000052C0000050C000004EC000003C
:1000800073C700004AC0000048C0000046C000001E
:1000900044C0000042C0000040C000003EC000005C
:1000A0003CC000003AC0000038C0000036C000006C
:1000B00034C0000032C0000030C000002EC000007C
:1000C0002CC000002AC0000028C0000026C000008C
:1000D00024C0000022C0000020C000001EC000009C
:1000E0001CC0000099056F059905A7059D05B5057C
:1000F000BB05C805D50511241FBECFEFD1E2DEBF79
:10010000CDBF00E00CBF27E1A0E0B2E001C01D922E
:10011000A83BB207E1F765D7A8C772CF0F921F922D
:100120002F923F924F925F926F927F928F929F9207
:10013000AF92BF92CF92DF92EF92FF920F931F93F5
:100140002F933F934F935F936F937F938F939F93DF
:10015000AF93BF93CF93DF93EF93FF93FCB7FF93DE
:100160000FB70F93EDB7FEB7E093B617F093B7173D
:10017000E091B417F091B517EDBFFEBF0F910FBF1F
:10018000FF91FCBFFF91EF91DF91CF91BF91AF91B4
:100190009F918F917F916F915F914F913F912F919F
:1001A0001F910F91FF90EF90DF90CF90BF90AF9095
:1001B0009F908F907F906F905F904F903F902F9087
:1001C0001F900F9018950F921F922F923F924F926F
:1001D0005F926F927F928F929F92AF92BF92CF92D7
:1001E000DF92EF92FF920F931F932F933F934F93C2
:1001F0005F936F937F938F939F93AF93BF93CF93AF
:10020000DF93EF93FF93FCB7FF930FB70F93EDB717
:10021000FEB7E093B417F093B517E091B617F091DD
:10022000B717EDBFFEBF0F910FBFFF91FCBFFF914E
:10023000EF91DF91CF91BF91AF919F918F917F917E
:100240006F915F914F913F912F911F910F91FF906F
:10025000EF90DF90CF90BF90AF909F908F907F9066
:100260006F905F904F903F902F901F900F90089548
:10027000F8949FEF91B992B112B842B121E030E009
:10028000B90102C0660F771F8A95E2F7CB01842B74
:1002900082B90000000082B112B878940895FFCFAF
:1002A0008091B4049091B504892B69F0F894E091A1
:1002B000B804F091B904E65FFE4F83E0808380E1EB
:1002C00080930B0180CF0895FC0180A191A14097FC
:1002D00019F48CE088B9FFCFA4A1B5A1AA0FBB1F68
:1002E000AE0FBF1F11967C936E9380A191A10196D2
:1002F00091A380A324A135A12F5F3F4F2F703078A9
:10030000332334F421503109206F3F6F2F5F3F4F6B
:1003100035A324A30895FC0180A191A1892B19F490
:100320008DE088B9FFCFA2A1B3A1AA0FBB1FAE0F6A
:10033000BF1F8D919C9120A131A12150310931A382
:1003400020A322A133A12F5F3F4F2F70307833239A
:1003500034F421503109206F3F6F2F5F3F4F33A39B
:1003600022A308958091020590910305181619069D
:100370009CF482EE94E0CFDF9093B9048093B804AC
:10038000FC01258136813093B5172093B417E95FBE
:10039000FE4F22E020830895809128059091290541
:1003A000181619069CF488E095E0B5DF9093B9041F
:1003B0008093B804FC01258136813093B5172093D2
:1003C000B417E95FFE4F22E02083089580914E0527
:1003D00090914F05181619069CF48EE295E09BDF6C
:1003E0009093B9048093B804FC0125813681309341
:1003F000B5172093B417E95FFE4F22E020830895DC
:100400008091DC049091DD04181619069CF48CEBA5
:1004100094E081DF9093B9048093B804FC012581B6
:1004200036813093B5172093B417E95FFE4F22E071
:100430002083089588E188B9FFCFCF93DF93EC0143
:100440008A81813079F0D8F0823039F08330E1F45C
:10045000BE018CEB94E038DF1AC0BE018EE295E05D
:1004600033DF15C0BE0188E095E02EDF80912805BE
:100470009091290502975CF085E088B9FFCFBE0115
:1004800082EE94E021DF03C08CE788B9FFCFC95F1B
:10049000DE4F81E08883DF91CF9108954F925F9284
:1004A0006F927F928F929F92AF92BF92CF92DF9284
:1004B000EF92FF920F93CF93DF93CDB7DEB73C015E
:1004C000FC013796412C55245394DF01C2011D9243
:1004D0000197E9F7E150FF4F80E591E08083319784
:1004E0009083319710823197608331977083319771
:1004F0001082C30182529F4FB297A081A068A0834F
:10050000D30116969C938E931597B9967183608349
:1005100032961082A55FBE4F11965C934E93D30125
:1005200011963C932E9312960C9312971082149668
:100530009C928E9213973996F182E0823296D18204
:10054000C0823296B182A0823296B182A082329667
:1005500011821082013021F484E07497808302C0FC
:10056000C3016BDFF30180819181DF91CF910F9106
:10057000FF90EF90DF90CF90BF90AF909F908F90C3
:100580007F906F905F904F9008958F929F92AF925F
:10059000BF92CF92DF92EF92FF920F931F93E09161
:1005A000B204F091B3047097A9F150915B06552302
:1005B00071F0A1E8B7E0E1E0F0E05C91552349F08B
:1005C0003196AA5DBE4FE031F105B9F702C0E0E017
:1005D000F0E04601570168017901042FAB01DC010D
:1005E0008091B2049091B30401969093B3048093E8
:1005F000B2049F012F5F3F4F66E271E0E69FC001AA
:10060000E79F900DF69F900D1124BD018C5A9A4FD3
:1006100045DF02C080E090E01F910F91FF90EF90C6
:10062000DF90CF90BF90AF909F908F900895809172
:10063000000290910102409718F082E088B9FFCF44
:1006400020910002309101028BE2829FF001839F92
:10065000F00D1124EE5FFD4F91E090832091000298
:1006600030910102829FF001839FF00D1124EE5F13
:10067000FD4F14A213A22091000230910102829F2B
:10068000F001839FF00D1124EE5FFD4F16A215A21D
:100690002091000230910102829FF001839FF00DB2
:1006A0001124EE5FFD4F10A617A2809100029091D9
:1006B0000102019690930102809300020895AF9287
:1006C000BF92CF92DF92EF92FF920F931F93CF933F
:1006D000DF93E091B804F091B9048281813019F47C
:1006E00083E088B9FFCFDF01A15FBE4FAD90BC9022
:1006F00021E0A21AB1088BE28A9DD0018B9DB00D3A
:100700001124AE5FBD4F8C91811103C082E088B986
:10071000FFCF823019F484E088B9FFCFDF01AF5EEC
:10072000BE4F2D913C919BE29A9DD0019B9DB00DB7
:100730001124AE5FBD4F9A963C932E9399978330C8
:1007400009F03EC019C0C801E6DDEC01F701808167
:100750009181FE01E35FFE4F91838083CE016DDEC8
:10076000E091B804F091B90482819A819817B8F4A5
:10077000CF0163DEF7DD13C08BE28A9D80018B9D84
:10078000100D1124C8018E5F9D4F6C01F3E2CF0E56
:10079000D11C7C0129E2E20EF11C0B5F1D4FF6011A
:1007A000808191811816190674F28BE28A9DF001FE
:1007B0008B9DF00D1124EE5FFD4F81E0808312C010
:1007C0008BE28A9DD0018B9DB00D1124AE5FBD4F91
:1007D00082E08C931296FC93EE931197E95FFE4FA3
:1007E00083E08083DF91CF911F910F91FF90EF9075
:1007F000DF90CF90BF90AF900895EF92FF920F934C
:100800001F93CF93DF93C091B804D091B9048A812C
:10081000813019F483E088B9FFCFFE01E15FFE4F1C
:1008200000811181015011098BE2809FF001819FAD
:10083000F00D1124EE5FFD4F8081811103C082E035
:1008400088B9FFCF823091F52BE2209FC001219F14
:10085000900D11249C012E5F3D4F7901D90199968D
:100860008D919C919A97FE01E35FFE4F9183808367
:1008700011968D919C911297E0DD8A81D701119696
:10088000ED91FC9112979281981718F4CE01D5DD65
:1008900069DD8BE2809FF001819FF00D1124EE5FF6
:1008A000FD4F1282118281E0808313C08BE2809F12
:1008B0007001819FF00C1124BE01C7018B5F9D4F19
:1008C00003DDF701EE5FFD4F83E08083C95FDE4FFC
:1008D0008883DF91CF911F910F91FF90EF90089542
:1008E000AF92BF92CF92DF92EF92FF920F931F933E
:1008F000CF93DF932091B8043091B904F901E15FFF
:10090000FE4FA080B18081E0A81AB1088BE28A9DD9
:10091000F0018B9DF00D1124EE5FFD4F8081811160
:1009200003C082E088B9FFCF823019F484E088B92F
:10093000FFCF833009F049C0F901EF5EFE4F80819F
:1009400091812BE22A9DF0012B9DF00D1124EE5F89
:10095000FD4F92A781A78BE28A9D80018B9D100D90
:100960001124CF016F01E3E2CE0ED11C7C01F9E22C
:10097000EF0EF11C0B5F1D4F18C0C801CCDCEC0161
:10098000F70180819181FE01E35FFE4F91838083B7
:10099000CE0153DDE091B804F091B90482819A81CF
:1009A000981718F4CF0149DDDDDCF60180819181D3
:1009B0001816190614F38BE28A9DF0018B9DF00D39
:1009C0001124EE5FFD4F81E08083DF91CF911F9175
:1009D0000F91FF90EF90DF90CF90BF90AF90089570
:1009E0001092B3041092B2041092B5041092B404A1
:1009F0001092B7041092B604E4E5F5E024EB37E179
:100A000086E291E0DF01AC011D9241505040E1F7D8
:100A1000DF01A95FBE4F1C92EA5DFE4FE217F307AC
:100A200089F71092010210920002E2E0F2E022EB5C
:100A300034E08BE2DF01482F1D924A95E9F71082DE
:100A4000BB96E217F307B1F708958F929F92BF927A
:100A5000CF92DF92EF92FF920F931F93CF93DF938A
:100A60008091B4049091B504892B09F0A0C08091C5
:100A7000B2049091B304892B09F499C0F89481E0F1
:100A800090E09093B5048093B4046CDC6894BB242C
:100A9000B2F8E091B804F091B904DF01A65FBE4F4F
:100AA0001C92858196819093B5178093B41736DB9D
:100AB000C091B804D091B9048091B4179091B51742
:100AC0009E838D83FE01E65FFE4FE081F0E0E9301A
:100AD000F105F8F68827EE58FF4F8F4FBEC2CB8046
:100AE000DC80FE01EC5DFE4FE080F18032970081FA
:100AF00011813297208131814E0181EE881A8EEF6B
:100B0000980AF401408174976081718133978081E4
:100B100091813BDDF4018081823008F0BACFF4018D
:100B200090818A81981708F0B4CFCE0186DC1ADC58
:100B3000B0CFCE0182DC16DCACCFFE01E55EFE4F0D
:100B400011821082C95FDE4FB8820CDCA2CFC95F70
:100B5000DE4F18828091B2049091B3040197909374
:100B6000B3048093B204FEDB94CF61DDC35FDE4F3C
:100B7000998388838ECFA3DDE091B804F091B90406
:100B8000E95FFE4F8081833009F083CFEBDB81CFBB
:100B900034DEE091B804F091B904E95FFE4F808142
:100BA000833009F076CFDEDB74CF9ADE72CFDF912F
:100BB000CF911F910F91FF90EF90DF90CF90BF905A
:100BC0009F908F900895CF92DF92EF92FF920F93B4
:100BD0001F932091B4043091B504232B41F1F89474
:100BE000E091B804F091B904DF01A65FBE4F21E0A7
:100BF0002C93129711969C938E93139611967C9337
:100C00006E93549682E08C93119611961C921E92CC
:100C1000129611961C921E92129611961C921E927A
:100C20001482138280E180930B01CDDA0AC0C12CBB
:100C3000D12CE12CF12C00E010E020E030E042E08B
:100C4000A4DC8091B2049091B3041F910F91FF90A6
:100C5000EF90DF90CF900895CF92DF92EF92FF92C6
:100C60000F931F932091B4043091B504232B41F1CD
:100C7000F894E091B804F091B904DF01A65FBE4F8B
:100C800021E02C93129711969C938E9313961196B4
:100C90007C936E93549682E08C93119611961C92DD
:100CA0001E92129611961C921E92129611961C92EA
:100CB0001E925483438380E180930B0184DA09C040
:100CC0006A01E12CF12C00E010E020E030E042E08D
:100CD0005CDC8091B2049091B3041F910F91FF905E
:100CE000EF90DF90CF900895CF92DF92EF92FF9236
:100CF0000F931F932091B4043091B504232B01F17D
:100D0000F8942091B8043091B904F901E65FFE4FE0
:100D100041E040833297918380833396718360836F
:100D2000749610823196118210823296118210824E
:100D300032961182108280E180930B0144DA0AC05E
:100D4000C12CD12CE12CF12C00E010E020E030E0AF
:100D500040E01BDCE091B804F091B90480819181FE
:100D60001F910F91FF90EF90DF90CF900895CF9259
:100D7000DF92EF92FF920F931F932091B404309172
:100D8000B504232B29F1F894E091B804F091B9044B
:100D9000DF01A65FBE4F21E02C93129711969C9322
:100DA0008E93139611967C936E9383E082831896AC
:100DB00011961C921E92129611961C921E92E95E3A
:100DC000FE4F1182108280E180930B01FCD90AC092
:100DD000C12CD12CE12CF12C00E010E020E030E01F
:100DE00043E0D3DBE091B804F091B90480819181B4
:100DF0001F910F91FF90EF90DF90CF900895809119
:100E0000B4049091B504892B39F1F894E091B804B9
:100E1000F091B9048281823089F4DF01A55EBE4F72
:100E20008D919C911197019611969C938E932D9183
:100E30003C91838194812817390770F0DF01A55E0A
:100E4000BE4F11961C921E92E65FFE4F82E0808399
:100E500080E180930B01B7C90895F8941092900037
:100E6000E1E9F0E010828081886080838081826087
:100E7000808380E29EE49093990080939800E1E75C
:100E8000F0E080818260808310929500109294003F
:100E900078940895AF92BF92CF92DF92EF92FF9233
:100EA0000F931F93CF93DF938091BA049091BB046B
:100EB00001969093BB048093BA0404E515E0CBE55A
:100EC000D6E00F2EFBEBCF2EF8E1DF2EF02DA12C7C
:100ED000B12C7801F8018281813019F58881843044
:100EE00071F18C899D8901969D8B8C8B2E853F8518
:100EF0008217930758F086E088B9FFCF2C853D858F
:100F0000820F931F9B8B8A8BC70197DAF70182812F
:100F1000813039F488818150823018F4FFEFAF1AA4
:100F2000BF0A0A5D1E4FCA5DDE4FCC15DD0589F68E
:100F300082E0A816B1046CF085E088B9FFCF8A89F9
:100F40009B892091BA043091BB048217930749F71B
:100F5000D5CFDF91CF911F910F91FF90EF90DF9050
:100F6000CF90BF90AF9008951F920F920FB60F923F
:100F700011240BB60F922F933F934F935F936F9370
:100F80007F938F939F93AF93BF93EF93FF9382DFF2
:100F9000E091B804F091B9048281823008F02FDF2B
:100FA000FF91EF91BF91AF919F918F917F916F9141
:100FB0005F914F913F912F910F900BBE0F900FBEFD
:100FC0000F901F901895EAE0F1E0808184608083A3
:100FD0008081886080838081806180838FEF87B982
:100FE0000895FEDCF0DF60E070E08FE491E0BFDEAA
:100FF00062E070E082E198E077DE2FDF26DD80E0BE
:1010000090E0089580E090E033D9FCCF81E090E05B
:101010002FD9FCCF82E090E02BD9FCCF83E090E089
:1010200027D9FCCF41E050E060E070E082E098E03A
:1010300013DE44E050E060E070E086E098E00CDE13
:1010400040E150E060E070E08AE098E005DE60E0BA
:1010500070E08EE098E0B7CD0895EE0FFF1F881F77
:0E1060008BBF0790F691E02D1994F894FFCF06
:00000001FF
