:1000000071C0000081C000007FC000007DC0000002
:100010007BC0000079C0000077C0000075C0000000
:1000200073C0000071C000006FC000006DC0000010
:100030006BC0000069C0000067C0000065C0000020
:1000400063C0000061C000005FC000005DC0000030
:100050005BC0000059C0000057C0000055C0000040
:1000600053C0000051C000004FC000004DC0000050
:100070004BC0000049C0000047C0000045C0000060
:1000800043C0000041C000003FC000003DC0000070
:100090003BC0000039C0000037C0000035C0000080
:1000A00033C0000031C000002FC000002DC0000090
:1000B0002BC0000029C0000027C0000025C00000A0
:1000C00023C0000021C000001FC000001DC00000B0
:1000D0001BC0000019C0000017C0000015C00000C0
:1000E00013C0000011241FBECFEFD1E2DEBFCDBF91
:1000F00000E00CBF26E0A0E0B2E001C01D92A431F8
:10010000B207E1F782D190C17BCF0F921F922F925D
:100110003F924F925F926F927F928F929F92AF9297
:10012000BF92CF92DF92EF92FF920F931F932F9384
:100130003F934F935F936F937F938F939F93AF936F
:10014000BF93CF93DF93EF93FF93FCB7FF93FFB77A
:10015000FF93E0911206F0911306CDB7DEB7C1937D
:10016000D19372D0E0911206F0911306C191D19112
:10017000CDBFDEBFFF910FBFFF910CBFFF91EF918D
:10018000DF91CF91BF91AF919F918F917F916F91AF
:100190005F914F913F912F911F910F91FF90EF90A1
:1001A000DF90CF90BF90AF909F908F907F906F9097
:1001B0005F904F903F902F901F900F9018958091D7
:1001C000020290910302892B49F0F894E091120603
:1001D000F0911306EE5FFE4F1082C3CF089518B85A
:1001E0007894FFCF8FEF88B97894FFCFCF93DF93C8
:1001F000DC01FC01329680E091E0EF019C01199254
:1002000021503040E1F7E150FF4F8FED90E08083C7
:100210003197908331971082319760833197708343
:100220003197108290E092939F5F9232E1F7CD0177
:1002300087529F4F11969C938E93AE5FBE4F81E085
:100240008C93DF91CF9108958091040290910502E3
:10025000FC01EE0FFF1F382F2227E20FF31F8E0F36
:100260009F1FFC01E85FFC4F80818130F1F080919D
:1002700004029091050201968370992790930502DC
:10028000809304028091040290910502FC01EE0F1C
:10029000FF1F382F2227E20FF31F8E0F9F1FFC0135
:1002A000E85FFC4F8081813011F7809104029091CA
:1002B0000502AC01440F551F382F2227240F351F8C
:1002C000820F931F8A5F9D4F9093130680931206AF
:1002D000FC01EE5FFE4F22E02083809104029091AA
:1002E000050201968370992790930502809304027A
:1002F00008951092010210920002109203021092CF
:1003000002021092050210920402E6E0F2E022E1FD
:1003100036E083E091E0DF01AC011D924150504096
:10032000E1F7DF01AE5FBE4F1C92ED5FFE4FE217BB
:10033000F30789F708958091020290910302892BB7
:1003400071F48091000290910102892B41F0F894A0
:1003500081E090E0909303028093020202CF08951F
:10036000F894209100023091010224303105A1F16E
:10037000209108032223A9F020910B04222359F095
:1003800020910E05222351F02091110621110CC05D
:1003900023E030E00BC021E030E008C022E030E094
:1003A00005C020E030E002C024E030E0BC018091D4
:1003B0000002909101020196909301028093000245
:1003C000A901440F551F922F8827840F951F820F74
:1003D000931F8A5F9D4F0ADF789408958FEF87B946
:1003E00018B80895F89414BC15BC16BC8BE987BDE9
:1003F00084B5826084BD85B5856085BDEEE6F0E09C
:1004000080818260808378940895F894EBDFE6DF42
:1004100070DF82EF90E0A4DF8FEE90E0A1DF7894B0
:0C0420008ADF80E090E00895F894FFCFA0
:00000001FF
